{
  "_format": "hh-sol-artifact-1",
  "contractName": "FileManager",
  "sourceName": "contracts/FileManager.sol",
  "abi": [
    {
      "inputs": [
        {
          "internalType": "string",
          "name": "_name",
          "type": "string"
        },
        {
          "internalType": "address",
          "name": "_allowed",
          "type": "address"
        }
      ],
      "name": "addAllowed",
      "outputs": [],
      "stateMutability": "nonpayable",
      "type": "function"
    },
    {
      "inputs": [
        {
          "internalType": "string",
          "name": "_name",
          "type": "string"
        },
        {
          "internalType": "string",
          "name": "_cid",
          "type": "string"
        },
        {
          "internalType": "string[]",
          "name": "fileNames",
          "type": "string[]"
        }
      ],
      "name": "createSafe",
      "outputs": [],
      "stateMutability": "nonpayable",
      "type": "function"
    },
    {
      "inputs": [
        {
          "internalType": "string",
          "name": "_name",
          "type": "string"
        }
      ],
      "name": "deleteSafe",
      "outputs": [],
      "stateMutability": "nonpayable",
      "type": "function"
    },
    {
      "inputs": [
        {
          "internalType": "address",
          "name": "_user",
          "type": "address"
        }
      ],
      "name": "getSafesSharedWith",
      "outputs": [
        {
          "components": [
            {
              "internalType": "string",
              "name": "name",
              "type": "string"
            },
            {
              "internalType": "string",
              "name": "cid",
              "type": "string"
            },
            {
              "internalType": "address",
              "name": "owner",
              "type": "address"
            },
            {
              "internalType": "string[]",
              "name": "fileNames",
              "type": "string[]"
            }
          ],
          "internalType": "struct FileManager.Safe[]",
          "name": "",
          "type": "tuple[]"
        }
      ],
      "stateMutability": "view",
      "type": "function"
    },
    {
      "inputs": [
        {
          "internalType": "address",
          "name": "_user",
          "type": "address"
        }
      ],
      "name": "getUserSafes",
      "outputs": [
        {
          "components": [
            {
              "internalType": "string",
              "name": "name",
              "type": "string"
            },
            {
              "internalType": "string",
              "name": "cid",
              "type": "string"
            },
            {
              "internalType": "address",
              "name": "owner",
              "type": "address"
            },
            {
              "internalType": "string[]",
              "name": "fileNames",
              "type": "string[]"
            }
          ],
          "internalType": "struct FileManager.Safe[]",
          "name": "",
          "type": "tuple[]"
        }
      ],
      "stateMutability": "view",
      "type": "function"
    },
    {
      "inputs": [
        {
          "internalType": "string",
          "name": "_name",
          "type": "string"
        },
        {
          "internalType": "address",
          "name": "_allowed",
          "type": "address"
        }
      ],
      "name": "removeAllowed",
      "outputs": [],
      "stateMutability": "nonpayable",
      "type": "function"
    },
    {
      "inputs": [],
      "name": "safeCount",
      "outputs": [
        {
          "internalType": "uint256",
          "name": "",
          "type": "uint256"
        }
      ],
      "stateMutability": "view",
      "type": "function"
    }
  ],
  "bytecode": "0x608060405234801561001057600080fd5b50611e02806100206000396000f3fe608060405234801561001057600080fd5b506004361061007d5760003560e01c80637df734721161005b5780637df73472146100ea578063be69169414610106578063e4bcd90214610124578063ee598f33146101405761007d565b80631789ac2b14610082578063317960c41461009e578063383efbd5146100ba575b600080fd5b61009c60048036038101906100979190611247565b610170565b005b6100b860048036038101906100b391906112ee565b61032c565b005b6100d460048036038101906100cf919061134a565b6104c8565b6040516100e191906115fa565b60405180910390f35b61010460048036038101906100ff9190611702565b6108eb565b005b61010e6109e6565b60405161011b91906117c2565b60405180910390f35b61013e600480360381019061013991906112ee565b6109ec565b005b61015a6004803603810190610155919061134a565b610b87565b60405161016791906115fa565b60405180910390f35b6000600190505b600254811161032757816040516020016101919190611819565b604051602081830303815290604052805190602001206000808381526020019081526020016000206000016040516020016101cc9190611928565b60405160208183030381529060405280519060200120036103145760008082815260200190815260200160002060020160009054906101000a900473ffffffffffffffffffffffffffffffffffffffff1673ffffffffffffffffffffffffffffffffffffffff163373ffffffffffffffffffffffffffffffffffffffff161461028a576040517f08c379a00000000000000000000000000000000000000000000000000000000081526004016102819061199c565b60405180910390fd5b600080828152602001908152602001600020600080820160006102ad9190610fb4565b6001820160006102bd9190610fb4565b6002820160006101000a81549073ffffffffffffffffffffffffffffffffffffffff02191690556003820160006102f49190610ff4565b505060026000815480929190610309906119eb565b919050555050610329565b808061031f90611a14565b915050610177565b505b50565b6000600190505b60025481116104c3578260405160200161034d9190611819565b604051602081830303815290604052805190602001206000808381526020019081526020016000206000016040516020016103889190611928565b60405160208183030381529060405280519060200120036104b05760008082815260200190815260200160002060020160009054906101000a900473ffffffffffffffffffffffffffffffffffffffff1673ffffffffffffffffffffffffffffffffffffffff163373ffffffffffffffffffffffffffffffffffffffff1614610446576040517f08c379a000000000000000000000000000000000000000000000000000000000815260040161043d90611aa8565b60405180910390fd5b60006001600083815260200190815260200160002060008473ffffffffffffffffffffffffffffffffffffffff1673ffffffffffffffffffffffffffffffffffffffff16815260200190815260200160002060006101000a81548160ff0219169083151502179055505b80806104bb90611a14565b915050610333565b505050565b6060600080600190505b6002548111610560576001600082815260200190815260200160002060008573ffffffffffffffffffffffffffffffffffffffff1673ffffffffffffffffffffffffffffffffffffffff16815260200190815260200160002060009054906101000a900460ff161561054d57818061054990611a14565b9250505b808061055890611a14565b9150506104d2565b5060008167ffffffffffffffff81111561057d5761057c61111c565b5b6040519080825280602002602001820160405280156105b657816020015b6105a3611015565b81526020019060019003908161059b5790505b509050600091506000600190505b60025481116108e0576001600082815260200190815260200160002060008673ffffffffffffffffffffffffffffffffffffffff1673ffffffffffffffffffffffffffffffffffffffff16815260200190815260200160002060009054906101000a900460ff16156108cd5760008082815260200190815260200160002060405180608001604052908160008201805461065d9061185f565b80601f01602080910402602001604051908101604052809291908181526020018280546106899061185f565b80156106d65780601f106106ab576101008083540402835291602001916106d6565b820191906000526020600020905b8154815290600101906020018083116106b957829003601f168201915b505050505081526020016001820180546106ef9061185f565b80601f016020809104026020016040519081016040528092919081815260200182805461071b9061185f565b80156107685780601f1061073d57610100808354040283529160200191610768565b820191906000526020600020905b81548152906001019060200180831161074b57829003601f168201915b505050505081526020016002820160009054906101000a900473ffffffffffffffffffffffffffffffffffffffff1673ffffffffffffffffffffffffffffffffffffffff1673ffffffffffffffffffffffffffffffffffffffff16815260200160038201805480602002602001604051908101604052809291908181526020016000905b8282101561089857838290600052602060002001805461080b9061185f565b80601f01602080910402602001604051908101604052809291908181526020018280546108379061185f565b80156108845780601f1061085957610100808354040283529160200191610884565b820191906000526020600020905b81548152906001019060200180831161086757829003601f168201915b5050505050815260200190600101906107ec565b50505050815250508284815181106108b3576108b2611ac8565b5b602002602001018190525082806108c990611a14565b9350505b80806108d890611a14565b9150506105c4565b508092505050919050565b600260008154809291906108fe90611a14565b919050555060405180608001604052808481526020018381526020013373ffffffffffffffffffffffffffffffffffffffff16815260200182815250600080600254815260200190815260200160002060008201518160000190816109639190611c8e565b5060208201518160010190816109799190611c8e565b5060408201518160020160006101000a81548173ffffffffffffffffffffffffffffffffffffffff021916908373ffffffffffffffffffffffffffffffffffffffff16021790555060608201518160030190805190602001906109dd929190611053565b50905050505050565b60025481565b6000600190505b6002548111610b825782604051602001610a0d9190611819565b60405160208183030381529060405280519060200120600080838152602001908152602001600020600001604051602001610a489190611928565b6040516020818303038152906040528051906020012003610b6f5760008082815260200190815260200160002060020160009054906101000a900473ffffffffffffffffffffffffffffffffffffffff1673ffffffffffffffffffffffffffffffffffffffff163373ffffffffffffffffffffffffffffffffffffffff1614610b06576040517f08c379a0000000000000000000000000000000000000000000000000000000008152600401610afd90611dac565b60405180910390fd5b600180600083815260200190815260200160002060008473ffffffffffffffffffffffffffffffffffffffff1673ffffffffffffffffffffffffffffffffffffffff16815260200190815260200160002060006101000a81548160ff0219169083151502179055505b8080610b7a90611a14565b9150506109f3565b505050565b6060600080600190505b6002548111610c24578373ffffffffffffffffffffffffffffffffffffffff1660008083815260200190815260200160002060020160009054906101000a900473ffffffffffffffffffffffffffffffffffffffff1673ffffffffffffffffffffffffffffffffffffffff1603610c11578180610c0d90611a14565b9250505b8080610c1c90611a14565b915050610b91565b5060008167ffffffffffffffff811115610c4157610c4061111c565b5b604051908082528060200260200182016040528015610c7a57816020015b610c67611015565b815260200190600190039081610c5f5790505b509050600091506000600190505b6002548111610fa9578473ffffffffffffffffffffffffffffffffffffffff1660008083815260200190815260200160002060020160009054906101000a900473ffffffffffffffffffffffffffffffffffffffff1673ffffffffffffffffffffffffffffffffffffffff1603610f9657600080828152602001908152602001600020604051806080016040529081600082018054610d269061185f565b80601f0160208091040260200160405190810160405280929190818152602001828054610d529061185f565b8015610d9f5780601f10610d7457610100808354040283529160200191610d9f565b820191906000526020600020905b815481529060010190602001808311610d8257829003601f168201915b50505050508152602001600182018054610db89061185f565b80601f0160208091040260200160405190810160405280929190818152602001828054610de49061185f565b8015610e315780601f10610e0657610100808354040283529160200191610e31565b820191906000526020600020905b815481529060010190602001808311610e1457829003601f168201915b505050505081526020016002820160009054906101000a900473ffffffffffffffffffffffffffffffffffffffff1673ffffffffffffffffffffffffffffffffffffffff1673ffffffffffffffffffffffffffffffffffffffff16815260200160038201805480602002602001604051908101604052809291908181526020016000905b82821015610f61578382906000526020600020018054610ed49061185f565b80601f0160208091040260200160405190810160405280929190818152602001828054610f009061185f565b8015610f4d5780601f10610f2257610100808354040283529160200191610f4d565b820191906000526020600020905b815481529060010190602001808311610f3057829003601f168201915b505050505081526020019060010190610eb5565b5050505081525050828481518110610f7c57610f7b611ac8565b5b60200260200101819052508280610f9290611a14565b9350505b8080610fa190611a14565b915050610c88565b508092505050919050565b508054610fc09061185f565b6000825580601f10610fd25750610ff1565b601f016020900490600052602060002090810190610ff091906110ac565b5b50565b508054600082559060005260206000209081019061101291906110c9565b50565b60405180608001604052806060815260200160608152602001600073ffffffffffffffffffffffffffffffffffffffff168152602001606081525090565b82805482825590600052602060002090810192821561109b579160200282015b8281111561109a57825182908161108a9190611c8e565b5091602001919060010190611073565b5b5090506110a891906110c9565b5090565b5b808211156110c55760008160009055506001016110ad565b5090565b5b808211156110e957600081816110e09190610fb4565b506001016110ca565b5090565b6000604051905090565b600080fd5b600080fd5b600080fd5b600080fd5b6000601f19601f8301169050919050565b7f4e487b7100000000000000000000000000000000000000000000000000000000600052604160045260246000fd5b6111548261110b565b810181811067ffffffffffffffff821117156111735761117261111c565b5b80604052505050565b60006111866110ed565b9050611192828261114b565b919050565b600067ffffffffffffffff8211156111b2576111b161111c565b5b6111bb8261110b565b9050602081019050919050565b82818337600083830152505050565b60006111ea6111e584611197565b61117c565b90508281526020810184848401111561120657611205611106565b5b6112118482856111c8565b509392505050565b600082601f83011261122e5761122d611101565b5b813561123e8482602086016111d7565b91505092915050565b60006020828403121561125d5761125c6110f7565b5b600082013567ffffffffffffffff81111561127b5761127a6110fc565b5b61128784828501611219565b91505092915050565b600073ffffffffffffffffffffffffffffffffffffffff82169050919050565b60006112bb82611290565b9050919050565b6112cb816112b0565b81146112d657600080fd5b50565b6000813590506112e8816112c2565b92915050565b60008060408385031215611305576113046110f7565b5b600083013567ffffffffffffffff811115611323576113226110fc565b5b61132f85828601611219565b9250506020611340858286016112d9565b9150509250929050565b6000602082840312156113605761135f6110f7565b5b600061136e848285016112d9565b91505092915050565b600081519050919050565b600082825260208201905092915050565b6000819050602082019050919050565b600081519050919050565b600082825260208201905092915050565b60005b838110156113dd5780820151818401526020810190506113c2565b60008484015250505050565b60006113f4826113a3565b6113fe81856113ae565b935061140e8185602086016113bf565b6114178161110b565b840191505092915050565b61142b816112b0565b82525050565b600081519050919050565b600082825260208201905092915050565b6000819050602082019050919050565b600061146983836113e9565b905092915050565b6000602082019050919050565b600061148982611431565b611493818561143c565b9350836020820285016114a58561144d565b8060005b858110156114e157848403895281516114c2858261145d565b94506114cd83611471565b925060208a019950506001810190506114a9565b50829750879550505050505092915050565b6000608083016000830151848203600086015261151082826113e9565b9150506020830151848203602086015261152a82826113e9565b915050604083015161153f6040860182611422565b5060608301518482036060860152611557828261147e565b9150508091505092915050565b600061157083836114f3565b905092915050565b6000602082019050919050565b600061159082611377565b61159a8185611382565b9350836020820285016115ac85611393565b8060005b858110156115e857848403895281516115c98582611564565b94506115d483611578565b925060208a019950506001810190506115b0565b50829750879550505050505092915050565b600060208201905081810360008301526116148184611585565b905092915050565b600067ffffffffffffffff8211156116375761163661111c565b5b602082029050602081019050919050565b600080fd5b600061166061165b8461161c565b61117c565b9050808382526020820190506020840283018581111561168357611682611648565b5b835b818110156116ca57803567ffffffffffffffff8111156116a8576116a7611101565b5b8086016116b58982611219565b85526020850194505050602081019050611685565b5050509392505050565b600082601f8301126116e9576116e8611101565b5b81356116f984826020860161164d565b91505092915050565b60008060006060848603121561171b5761171a6110f7565b5b600084013567ffffffffffffffff811115611739576117386110fc565b5b61174586828701611219565b935050602084013567ffffffffffffffff811115611766576117656110fc565b5b61177286828701611219565b925050604084013567ffffffffffffffff811115611793576117926110fc565b5b61179f868287016116d4565b9150509250925092565b6000819050919050565b6117bc816117a9565b82525050565b60006020820190506117d760008301846117b3565b92915050565b600081905092915050565b60006117f3826113a3565b6117fd81856117dd565b935061180d8185602086016113bf565b80840191505092915050565b600061182582846117e8565b915081905092915050565b7f4e487b7100000000000000000000000000000000000000000000000000000000600052602260045260246000fd5b6000600282049050600182168061187757607f821691505b60208210810361188a57611889611830565b5b50919050565b60008190508160005260206000209050919050565b600081546118b28161185f565b6118bc81866117dd565b945060018216600081146118d757600181146118ec5761191f565b60ff198316865281151582028601935061191f565b6118f585611890565b60005b83811015611917578154818901526001820191506020810190506118f8565b838801955050505b50505092915050565b600061193482846118a5565b915081905092915050565b600082825260208201905092915050565b7f4f6e6c79206f776e65722063616e2064656c6574652073616665000000000000600082015250565b6000611986601a8361193f565b915061199182611950565b602082019050919050565b600060208201905081810360008301526119b581611979565b9050919050565b7f4e487b7100000000000000000000000000000000000000000000000000000000600052601160045260246000fd5b60006119f6826117a9565b915060008203611a0957611a086119bc565b5b600182039050919050565b6000611a1f826117a9565b91507fffffffffffffffffffffffffffffffffffffffffffffffffffffffffffffffff8203611a5157611a506119bc565b5b600182019050919050565b7f4f6e6c79206f776e65722063616e2072656d6f766520616c6c6f776564000000600082015250565b6000611a92601d8361193f565b9150611a9d82611a5c565b602082019050919050565b60006020820190508181036000830152611ac181611a85565b9050919050565b7f4e487b7100000000000000000000000000000000000000000000000000000000600052603260045260246000fd5b60006020601f8301049050919050565b600082821b905092915050565b600060088302611b447fffffffffffffffffffffffffffffffffffffffffffffffffffffffffffffffff82611b07565b611b4e8683611b07565b95508019841693508086168417925050509392505050565b6000819050919050565b6000611b8b611b86611b81846117a9565b611b66565b6117a9565b9050919050565b6000819050919050565b611ba583611b70565b611bb9611bb182611b92565b848454611b14565b825550505050565b600090565b611bce611bc1565b611bd9818484611b9c565b505050565b5b81811015611bfd57611bf2600082611bc6565b600181019050611bdf565b5050565b601f821115611c4257611c1381611890565b611c1c84611af7565b81016020851015611c2b578190505b611c3f611c3785611af7565b830182611bde565b50505b505050565b600082821c905092915050565b6000611c6560001984600802611c47565b1980831691505092915050565b6000611c7e8383611c54565b9150826002028217905092915050565b611c97826113a3565b67ffffffffffffffff811115611cb057611caf61111c565b5b611cba825461185f565b611cc5828285611c01565b600060209050601f831160018114611cf85760008415611ce6578287015190505b611cf08582611c72565b865550611d58565b601f198416611d0686611890565b60005b82811015611d2e57848901518255600182019150602085019450602081019050611d09565b86831015611d4b5784890151611d47601f891682611c54565b8355505b6001600288020188555050505b505050505050565b7f4f6e6c79206f776e65722063616e2061646420616c6c6f776564000000000000600082015250565b6000611d96601a8361193f565b9150611da182611d60565b602082019050919050565b60006020820190508181036000830152611dc581611d89565b905091905056fea2646970667358221220ab699b92afe33994a4ce1b63df861237c7213c8d834d8130b170bf350e6081d864736f6c63430008120033",
  "linkReferences": {},
  "deployedLinkReferences": {}
}