{
  "_format": "hh-sol-artifact-1",
  "contractName": "FileManager",
  "sourceName": "contracts/FileManager.sol",
  "abi": [
    {
      "inputs": [
        {
          "internalType": "string",
          "name": "_name",
          "type": "string"
        },
        {
          "internalType": "address",
          "name": "_allowed",
          "type": "address"
        }
      ],
      "name": "addAllowed",
      "outputs": [],
      "stateMutability": "nonpayable",
      "type": "function"
    },
    {
      "inputs": [
        {
          "internalType": "string",
          "name": "_name",
          "type": "string"
        },
        {
          "internalType": "string",
          "name": "_cid",
          "type": "string"
        },
        {
          "internalType": "string[]",
          "name": "fileNames",
          "type": "string[]"
        }
      ],
      "name": "createSafe",
      "outputs": [],
      "stateMutability": "nonpayable",
      "type": "function"
    },
    {
      "inputs": [
        {
          "internalType": "address",
          "name": "_user",
          "type": "address"
        }
      ],
      "name": "getSafesSharedWith",
      "outputs": [
        {
          "components": [
            {
              "internalType": "string",
              "name": "name",
              "type": "string"
            },
            {
              "internalType": "string",
              "name": "cid",
              "type": "string"
            },
            {
              "internalType": "address",
              "name": "owner",
              "type": "address"
            },
            {
              "internalType": "string[]",
              "name": "fileNames",
              "type": "string[]"
            }
          ],
          "internalType": "struct FileManager.Safe[]",
          "name": "",
          "type": "tuple[]"
        }
      ],
      "stateMutability": "view",
      "type": "function"
    },
    {
      "inputs": [
        {
          "internalType": "address",
          "name": "_user",
          "type": "address"
        }
      ],
      "name": "getUserSafes",
      "outputs": [
        {
          "components": [
            {
              "internalType": "string",
              "name": "name",
              "type": "string"
            },
            {
              "internalType": "string",
              "name": "cid",
              "type": "string"
            },
            {
              "internalType": "address",
              "name": "owner",
              "type": "address"
            },
            {
              "internalType": "string[]",
              "name": "fileNames",
              "type": "string[]"
            }
          ],
          "internalType": "struct FileManager.Safe[]",
          "name": "",
          "type": "tuple[]"
        }
      ],
      "stateMutability": "view",
      "type": "function"
    },
    {
      "inputs": [
        {
          "internalType": "string",
          "name": "_name",
          "type": "string"
        },
        {
          "internalType": "address",
          "name": "_allowed",
          "type": "address"
        }
      ],
      "name": "removeAllowed",
      "outputs": [],
      "stateMutability": "nonpayable",
      "type": "function"
    }
  ],
  "bytecode": "0x608060405234801561001057600080fd5b50611892806100206000396000f3fe608060405234801561001057600080fd5b50600436106100575760003560e01c8063317960c41461005c578063383efbd5146100785780637df73472146100a8578063e4bcd902146100c4578063ee598f33146100e0575b600080fd5b61007660048036038101906100719190610e3d565b610110565b005b610092600480360381019061008d9190610e99565b6102ac565b60405161009f9190611149565b60405180910390f35b6100c260048036038101906100bd9190611251565b6105de565b005b6100de60048036038101906100d99190610e3d565b6106d9565b005b6100fa60048036038101906100f59190610e99565b610874565b6040516101079190611149565b60405180910390f35b6000600190505b60025481116102a757826040516020016101319190611334565b6040516020818303038152906040528051906020012060008083815260200190815260200160002060000160405160200161016c9190611443565b60405160208183030381529060405280519060200120036102945760008082815260200190815260200160002060020160009054906101000a900473ffffffffffffffffffffffffffffffffffffffff1673ffffffffffffffffffffffffffffffffffffffff163373ffffffffffffffffffffffffffffffffffffffff161461022a576040517f08c379a0000000000000000000000000000000000000000000000000000000008152600401610221906114b7565b60405180910390fd5b60006001600083815260200190815260200160002060008473ffffffffffffffffffffffffffffffffffffffff1673ffffffffffffffffffffffffffffffffffffffff16815260200190815260200160002060006101000a81548160ff0219169083151502179055505b808061029f90611510565b915050610117565b505050565b606080600080600190505b60025481116105d3576001600082815260200190815260200160002060008673ffffffffffffffffffffffffffffffffffffffff1673ffffffffffffffffffffffffffffffffffffffff16815260200190815260200160002060009054906101000a900460ff16156105c0576000808281526020019081526020016000206040518060800160405290816000820180546103509061137a565b80601f016020809104026020016040519081016040528092919081815260200182805461037c9061137a565b80156103c95780601f1061039e576101008083540402835291602001916103c9565b820191906000526020600020905b8154815290600101906020018083116103ac57829003601f168201915b505050505081526020016001820180546103e29061137a565b80601f016020809104026020016040519081016040528092919081815260200182805461040e9061137a565b801561045b5780601f106104305761010080835404028352916020019161045b565b820191906000526020600020905b81548152906001019060200180831161043e57829003601f168201915b505050505081526020016002820160009054906101000a900473ffffffffffffffffffffffffffffffffffffffff1673ffffffffffffffffffffffffffffffffffffffff1673ffffffffffffffffffffffffffffffffffffffff16815260200160038201805480602002602001604051908101604052809291908181526020016000905b8282101561058b5783829060005260206000200180546104fe9061137a565b80601f016020809104026020016040519081016040528092919081815260200182805461052a9061137a565b80156105775780601f1061054c57610100808354040283529160200191610577565b820191906000526020600020905b81548152906001019060200180831161055a57829003601f168201915b5050505050815260200190600101906104df565b50505050815250508383815181106105a6576105a5611558565b5b602002602001018190525081806105bc90611510565b9250505b80806105cb90611510565b9150506102b7565b508192505050919050565b600260008154809291906105f190611510565b919050555060405180608001604052808481526020018381526020013373ffffffffffffffffffffffffffffffffffffffff1681526020018281525060008060025481526020019081526020016000206000820151816000019081610656919061171e565b50602082015181600101908161066c919061171e565b5060408201518160020160006101000a81548173ffffffffffffffffffffffffffffffffffffffff021916908373ffffffffffffffffffffffffffffffffffffffff16021790555060608201518160030190805190602001906106d0929190610bab565b50905050505050565b6000600190505b600254811161086f57826040516020016106fa9190611334565b604051602081830303815290604052805190602001206000808381526020019081526020016000206000016040516020016107359190611443565b604051602081830303815290604052805190602001200361085c5760008082815260200190815260200160002060020160009054906101000a900473ffffffffffffffffffffffffffffffffffffffff1673ffffffffffffffffffffffffffffffffffffffff163373ffffffffffffffffffffffffffffffffffffffff16146107f3576040517f08c379a00000000000000000000000000000000000000000000000000000000081526004016107ea9061183c565b60405180910390fd5b600180600083815260200190815260200160002060008473ffffffffffffffffffffffffffffffffffffffff1673ffffffffffffffffffffffffffffffffffffffff16815260200190815260200160002060006101000a81548160ff0219169083151502179055505b808061086790611510565b9150506106e0565b505050565b606080600080600190505b6002548111610ba0578473ffffffffffffffffffffffffffffffffffffffff1660008083815260200190815260200160002060020160009054906101000a900473ffffffffffffffffffffffffffffffffffffffff1673ffffffffffffffffffffffffffffffffffffffff1603610b8d5760008082815260200190815260200160002060405180608001604052908160008201805461091d9061137a565b80601f01602080910402602001604051908101604052809291908181526020018280546109499061137a565b80156109965780601f1061096b57610100808354040283529160200191610996565b820191906000526020600020905b81548152906001019060200180831161097957829003601f168201915b505050505081526020016001820180546109af9061137a565b80601f01602080910402602001604051908101604052809291908181526020018280546109db9061137a565b8015610a285780601f106109fd57610100808354040283529160200191610a28565b820191906000526020600020905b815481529060010190602001808311610a0b57829003601f168201915b505050505081526020016002820160009054906101000a900473ffffffffffffffffffffffffffffffffffffffff1673ffffffffffffffffffffffffffffffffffffffff1673ffffffffffffffffffffffffffffffffffffffff16815260200160038201805480602002602001604051908101604052809291908181526020016000905b82821015610b58578382906000526020600020018054610acb9061137a565b80601f0160208091040260200160405190810160405280929190818152602001828054610af79061137a565b8015610b445780601f10610b1957610100808354040283529160200191610b44565b820191906000526020600020905b815481529060010190602001808311610b2757829003601f168201915b505050505081526020019060010190610aac565b5050505081525050838381518110610b7357610b72611558565b5b60200260200101819052508180610b8990611510565b9250505b8080610b9890611510565b91505061087f565b508192505050919050565b828054828255906000526020600020908101928215610bf3579160200282015b82811115610bf2578251829081610be2919061171e565b5091602001919060010190610bcb565b5b509050610c009190610c04565b5090565b5b80821115610c245760008181610c1b9190610c28565b50600101610c05565b5090565b508054610c349061137a565b6000825580601f10610c465750610c65565b601f016020900490600052602060002090810190610c649190610c68565b5b50565b5b80821115610c81576000816000905550600101610c69565b5090565b6000604051905090565b600080fd5b600080fd5b600080fd5b600080fd5b6000601f19601f8301169050919050565b7f4e487b7100000000000000000000000000000000000000000000000000000000600052604160045260246000fd5b610cec82610ca3565b810181811067ffffffffffffffff82111715610d0b57610d0a610cb4565b5b80604052505050565b6000610d1e610c85565b9050610d2a8282610ce3565b919050565b600067ffffffffffffffff821115610d4a57610d49610cb4565b5b610d5382610ca3565b9050602081019050919050565b82818337600083830152505050565b6000610d82610d7d84610d2f565b610d14565b905082815260208101848484011115610d9e57610d9d610c9e565b5b610da9848285610d60565b509392505050565b600082601f830112610dc657610dc5610c99565b5b8135610dd6848260208601610d6f565b91505092915050565b600073ffffffffffffffffffffffffffffffffffffffff82169050919050565b6000610e0a82610ddf565b9050919050565b610e1a81610dff565b8114610e2557600080fd5b50565b600081359050610e3781610e11565b92915050565b60008060408385031215610e5457610e53610c8f565b5b600083013567ffffffffffffffff811115610e7257610e71610c94565b5b610e7e85828601610db1565b9250506020610e8f85828601610e28565b9150509250929050565b600060208284031215610eaf57610eae610c8f565b5b6000610ebd84828501610e28565b91505092915050565b600081519050919050565b600082825260208201905092915050565b6000819050602082019050919050565b600081519050919050565b600082825260208201905092915050565b60005b83811015610f2c578082015181840152602081019050610f11565b60008484015250505050565b6000610f4382610ef2565b610f4d8185610efd565b9350610f5d818560208601610f0e565b610f6681610ca3565b840191505092915050565b610f7a81610dff565b82525050565b600081519050919050565b600082825260208201905092915050565b6000819050602082019050919050565b6000610fb88383610f38565b905092915050565b6000602082019050919050565b6000610fd882610f80565b610fe28185610f8b565b935083602082028501610ff485610f9c565b8060005b8581101561103057848403895281516110118582610fac565b945061101c83610fc0565b925060208a01995050600181019050610ff8565b50829750879550505050505092915050565b6000608083016000830151848203600086015261105f8282610f38565b915050602083015184820360208601526110798282610f38565b915050604083015161108e6040860182610f71565b50606083015184820360608601526110a68282610fcd565b9150508091505092915050565b60006110bf8383611042565b905092915050565b6000602082019050919050565b60006110df82610ec6565b6110e98185610ed1565b9350836020820285016110fb85610ee2565b8060005b85811015611137578484038952815161111885826110b3565b9450611123836110c7565b925060208a019950506001810190506110ff565b50829750879550505050505092915050565b6000602082019050818103600083015261116381846110d4565b905092915050565b600067ffffffffffffffff82111561118657611185610cb4565b5b602082029050602081019050919050565b600080fd5b60006111af6111aa8461116b565b610d14565b905080838252602082019050602084028301858111156111d2576111d1611197565b5b835b8181101561121957803567ffffffffffffffff8111156111f7576111f6610c99565b5b8086016112048982610db1565b855260208501945050506020810190506111d4565b5050509392505050565b600082601f83011261123857611237610c99565b5b813561124884826020860161119c565b91505092915050565b60008060006060848603121561126a57611269610c8f565b5b600084013567ffffffffffffffff81111561128857611287610c94565b5b61129486828701610db1565b935050602084013567ffffffffffffffff8111156112b5576112b4610c94565b5b6112c186828701610db1565b925050604084013567ffffffffffffffff8111156112e2576112e1610c94565b5b6112ee86828701611223565b9150509250925092565b600081905092915050565b600061130e82610ef2565b61131881856112f8565b9350611328818560208601610f0e565b80840191505092915050565b60006113408284611303565b915081905092915050565b7f4e487b7100000000000000000000000000000000000000000000000000000000600052602260045260246000fd5b6000600282049050600182168061139257607f821691505b6020821081036113a5576113a461134b565b5b50919050565b60008190508160005260206000209050919050565b600081546113cd8161137a565b6113d781866112f8565b945060018216600081146113f257600181146114075761143a565b60ff198316865281151582028601935061143a565b611410856113ab565b60005b8381101561143257815481890152600182019150602081019050611413565b838801955050505b50505092915050565b600061144f82846113c0565b915081905092915050565b600082825260208201905092915050565b7f4f6e6c79206f776e65722063616e2072656d6f766520616c6c6f776564000000600082015250565b60006114a1601d8361145a565b91506114ac8261146b565b602082019050919050565b600060208201905081810360008301526114d081611494565b9050919050565b7f4e487b7100000000000000000000000000000000000000000000000000000000600052601160045260246000fd5b6000819050919050565b600061151b82611506565b91507fffffffffffffffffffffffffffffffffffffffffffffffffffffffffffffffff820361154d5761154c6114d7565b5b600182019050919050565b7f4e487b7100000000000000000000000000000000000000000000000000000000600052603260045260246000fd5b60006020601f8301049050919050565b600082821b905092915050565b6000600883026115d47fffffffffffffffffffffffffffffffffffffffffffffffffffffffffffffffff82611597565b6115de8683611597565b95508019841693508086168417925050509392505050565b6000819050919050565b600061161b61161661161184611506565b6115f6565b611506565b9050919050565b6000819050919050565b61163583611600565b61164961164182611622565b8484546115a4565b825550505050565b600090565b61165e611651565b61166981848461162c565b505050565b5b8181101561168d57611682600082611656565b60018101905061166f565b5050565b601f8211156116d2576116a3816113ab565b6116ac84611587565b810160208510156116bb578190505b6116cf6116c785611587565b83018261166e565b50505b505050565b600082821c905092915050565b60006116f5600019846008026116d7565b1980831691505092915050565b600061170e83836116e4565b9150826002028217905092915050565b61172782610ef2565b67ffffffffffffffff8111156117405761173f610cb4565b5b61174a825461137a565b611755828285611691565b600060209050601f8311600181146117885760008415611776578287015190505b6117808582611702565b8655506117e8565b601f198416611796866113ab565b60005b828110156117be57848901518255600182019150602085019450602081019050611799565b868310156117db57848901516117d7601f8916826116e4565b8355505b6001600288020188555050505b505050505050565b7f4f6e6c79206f776e65722063616e2061646420616c6c6f776564000000000000600082015250565b6000611826601a8361145a565b9150611831826117f0565b602082019050919050565b6000602082019050818103600083015261185581611819565b905091905056fea26469706673582212202016dbc71d6b9ba3ce6b96f85696c3db5d66a2e57d9326836650e6ce519884d464736f6c63430008120033",
  "linkReferences": {},
  "deployedLinkReferences": {}
}